LABEL=SWTPc GT-6144 BARTST-1
SWTPc GT-6144 test program
Displays a test pattern on the GT-6144 and then waits for input:

1 - REVERSE SCREEN
2 - NORMAL SCREEN
3 - BLANK CT-1024
4 - ENABLE CT-1024
5 - ENABLE GT-6144 Graphics
6 - BLANK GT-6144 Graphics

S113000000000000800CFE0004A700C637E701E6EC
S113001000C63FE70139863CB78007FE0004C6FFEF
S1130020E700C63FE701000096268140271CBD007B
S11300300696278160270A8B80BD00067C00272056
S1130040F0860097277C002620DE860097269727D7
S113005086E4BD00062003014000965881802722D3
S1130060BD000696598160270D8B80BD00067C007B
S11300705901010120ED860097597C00587C0058F5
S113008020D8BDE1AC8131271E8132271E81332760
S11300901E8134271E8135271E8136271E8137276E
S11300A01E8138271E20DB86E0201A86E120168672
S11300B0E2201286E3200E86E4200A86E5200686E6
S10D00C0E6200286E7BD000620B822
S105A0480016FC
S9
