LABEL=Tic-Tac-Toe
To enter a new Skill level, type S at the first
prompt of a new game.

S11300200A203120212032202120330D0A2D2D2DAC
S1130030212D2D2D212D2D2D0D0A2034202120356B
S1130040202120360D0A2D2D2D212D2D2D212D2D54
S11300502D0D0A203720212038202120392020048A
S1130060007200220026002A003B003F0043005497
S11300700058005C040509CB067303000010167FCA
S11300807F4E45573D32040000534B494C4C3D30A4
S11300902004A047001000000005BA05C005C605ED
S11300A0CC0665008F009FCA8780D50083800380BB
S11300B08700838007808700030085008300870012
S11300C038000200030016001C0012001200121077
S11300D01200160012001B000A0012001300170081
S11300E08300070097800300930087C140008700C6
S11300F040808B81830013008F009FCA87815F003B
S11301007E04E810167F7F48454C4C4F204920411F
S11301104D2041205357545043203638303020432B
S11301204F4D5055544552000000000D0A000D0A71
S11301304920414D2050524F4752414D4D45442096
S1130140544F20504C41590D0A5449432D544143B6
S11301502D544F450D0A594F552041524520224FE9
S11301602220414E4420594F5520504C415920469D
S1130170495253542E0D0A594F5520504C41592081
S1130180425920545950494E472041204E554D4222
S113019045522046524F4D203120544F20392020C3
S11301A020202020202020200D0A04494E56414CB6
S11301B04944205245504C592120504C4541534507
S11301C0205459504520414741494E3A045448412E
S11301D054204C4F434154494F4E20495320414CE5
S11301E052454144592054414B454E2C20504C45D6
S11301F04153452054525920414741494E2E202015
S113020004594F555220504C41593A2004594F55E6
S11302102057494E2104492057494E210454494549
S11302202047414D452E04574F554C4420594F55B6
S1130230204C494B4520544F20504C4159204147B4
S113024041494E3F20041016000054595045204E99
S1130250455720534B494C4C3A20302D4C4F572C8A
S113026020544F20392D4849474820202020202061
S113027020202020202020045448414E4B20594F58
S1130280552E204920484F504520594F552048416C
S11302905645200D0A454E4A4F59454420504C417D
S11302A059494E470D0A594F55204D415920524541
S11302B0535441525420425920545950494E4720D6
S11302C0414E590D0A4348415241435445520A0A8A
S11302D00A0A0A0A0A0A04504C4541534520545953
S11302E0504520225922204F5220224E222E04D63D
S11302F02296549722965C9754962A975CD72AD6CE
S113030026963B97269658973B96439758D7433063
S1130310EE0031317A00742606860497746E02EE7C
S1130320006E00309F92AE00347F0096324D2B4316
S113033016C40F58D795DE94EE60E60085102706A4
S1130340C158271F200E85202706C14F27152004DA
S1130350C120270F854026037C0096740096780000
S11303609620C9854026C57C00967400960D7900B8
S11303709620B9309E9231317D009626026E00841B
S11303800F9795DE94EE976E009677840F8005970D
S11303907896758101262B967681062E1281052E7C
S11303A0092D317D00782A2C20057D00782B25BD70
S11303B00323222582BD03232186BD02EF03AF7EE2
S11303C003BFBD032321626321656922656888BD7B
S11303D002EF03C27C007BBD032312534115594134
S11303E014574182BD032311534215584284BD035F
S11303F02311594512584586BD02EF03D47F007B73
S1130400967681012E092D3C7D00782A37200F969F
S11304107681022704810526057D00782B26BD03FD
S11304202322634125694124674182BD032321635B
S11304304225684284BD032321694522684586BD5F
S113044002EF041E96758102265F967681092D09B6
S11304502E107D00782B5220098108264C7D0078CF
S11304602A47BD0323016255670166684901636534
S1130470014253670163576882BD03230264550236
S1130480556602616902636702646702666984BD36
S11304900323056264510562675105636451056174
S11304A0069D5986BD02EF0462D677967581022EA9
S11304B00A2704C1202E17C1302E1381042704C13A
S11304C0402E0BC1802E15BD032305862004C18058
S11304D02E0ABD03230182BD02EF04D2BD03230211
S11304E084BD02EF04DC20DFCE00628631DF60EEE3
S11304F000A70081392707DE6008084C20EFCE01F1
S113050003BD0692CE0020BD0692CE00628620C6B0
S113051009DF60EE00A7005A2706DE60080820F114
S113052086049774860197757F007B7F007CBD06E7
S1130530A19676810A2C0A8A30978FCE0087BD0651
S113054092CE0201BD06947C007726037C0079B626
S11305508004012BF2BDE1AC815326229675810102
S11305602648CE0246BD0692BDE1AC81302D048101
S1130570392302860A840F9776BD06A120C38131F0
S11305802D2881392E24840F489795DE94EE60A699
S1130590008120261D864FA70096798403977A4C04
S11305A09774BD02EF05A27E0389CE01ABBD06920E
S11305B02095CE01CDBD0692208D865A9722200F1C
S11305C0865A97262009865A973F20037C007C96FA
S11305D0748B03907A9774BD02EF05D77D007C2657
S11305E04EC601CE0062DF60EE00A600815A2707E6
S11305F0DE605C080820EF8658A700CA30D785CE95
S1130600007DBD0692CE0020BD06927D007B262D86
S113061096757C0075810427037E0541CE0062DF58
S113062060EE00A6008120271CDE60080820F0CEC2
S11306300020BD0692CE020DBD06942030CE0216D7
S1130640BD06942028864FA700DF60BD03232162E6
S1130650632165692265688ABD02EF064BCE021DDF
S1130660BD06942008DE608620A70020C8CE02279D
S1130670BD0692BDE1AC815926037E050A814E2652
S11306800CCE0278BD0692BDE1AC7E04E8CE02D762
S113069020DE8D0DA60081042706BDE1D10820F4DB
S11306A039860ABDE1D1860DBDE1D18600BDE1D117
S10406B0390C
S105A048010011
Patched to remove MP-C dependency (1/22/06, FLAR)
S109054F0101010101019C
Patched to exit game cleanly (1/29/06, FLAR)
S10402A6044F
S10606877EE0E32B
S9
